:100000000C940C090C9429090C9429090C942909C5
:100010000C9429090C94B7130C94B8100C9429096A
:100020000C9493130C9429090C9429090C94290914
:100030000C94BC0F0C9429090C9429090C942909DF
:100040000C9429090C9429090C94DB130C940514C5
:100050000C9429090C9429090C9429090C94290958
:100060000C9429090C9429090C9429090C94290948
:100070000C9429090C9429090C948B140C94B71432
:100080000C9429090C9429090C9429096E616E00BD
:10009000696E6600247E0A0F206000020508070BC7
:1000A0000A020404050803030207070607070707F7
:1000B000070707070203070807060C0A07070806D1
:1000C000060808020408060C0909070A07060808BA
:1000D000090F0708080307030708030607050706B3
:1000E000050707020307020A0707070705040507B4
:1000F000080C0708040402040708FEFE1A1A1E1E54
:10010000001E1E000000000020A0FC7CA0FC7C2043
:10011000021E1E021E1E0202387CECCFCF8C180C71
:100120001878781A1E0E387C447CB8C070B88C845D
:10013000000010180E06000E1E101E0E18D8F83003
:1001400078D89898F8700000001C3E32323E1C00AF
:100150001E1E0000E0FC1E020E7EF080021EFCE06F
:1001600080F07E0E24187E18240000000000C0C01D
:10017000C0F8F8C0C0C00000000E0E000000000073
:1001800000407838808080020202181800000000C9
:1001900080F07C0F0360781E06000000F0F818184D
:1001A00018F8F01E3E3030303E1E1818F8F81818B7
:1001B00000003E3E1818181898D87838181C3E329F
:1001C00030303018F0F898989898301C3E3232321F
:1001D000321860F8F86060E0E0003E3E181E06004D
:1001E000F0F898989898B030323232323E3EF0F8BB
:1001F000989898F8F030323232381E0E000080E0C5
:10020000781800303C3E3230303070F8989898F8CA
:10021000701C3E3232323E1CE0F038989898181E1E
:100220003E3232323E1E18180606006060407838B2
:1002300030306060C0C08018180C0C0606023030E8
:10024000303030303030060606060606060680C01E
:10025000C0606030300206060C0C18180C06C6C6CA
:100260007E3C00001A1A0000C0F038D8EC6CECECB0
:100270006C1CF8F00E3E30666E6C666E6C0C0602FE
:1002800018F8E060606060E0F8180000061E38387A
:100290001E060000F0F8989898F8F81C3E323232AA
:1002A0003E3E3018181838F0E018303030381E0E46
:1002B000E0F038181818F8F80E1E383030303E3E8E
:1002C00018989898F8F8303232323E3E008080809C
:1002D000F8F8303232323E3EF0F898981838F0E0B4
:1002E0001A32323230381E0EF8F880808080F8F8EA
:1002F0003E3E020202023E3EF8F83E3EF0F818187A
:100300003E3E0000183870E0C080F8F830381C0E0F
:1003100006023E3E18181818F8F8000000003E3E8D
:10032000F8F80080E07878E08000F8F83E3E381E6B
:10033000060000061E383E3EF8F838F0C00000F80F
:10034000F83E3E0000061E383E3EE0F03818181811
:1003500038F0E00E1E38303030381E0E80C0C0C07D
:10036000C0F8F81E3E3030303E3E06EEFC3818181D
:100370001838F0E0000E1E38303030381E0E187875
:10038000E08080F8F81C3E3232323E3EF0F8989819
:100390009830183232323E1E000000F8F80000009B
:1003A0003030303E3E303030E0F038181838F0E071
:1003B0003E3E000000003E3E0000E0F818F8E0007D
:1003C00000303E0E0000000E3E300000E0F878E005
:1003D000800080E078F8E00000303E0E0000061E4D
:1003E000381E0600000E3E301878E080E0781830A5
:1003F0003C0E020E3C30000080F8F8800000303CDB
:100400000E02020E3C3018181898D8F87838383C8C
:100410003E3632303030FEFE06FEFEC0031F7CE06A
:10042000800000000000061E786006FEFEC0FEFE92
:10043000C0F03C0C3CF0C0000000000000000000D8
:10044000000000000000C0C0C0C0C0C0C0C00206A4
:100450000C000000F8F85858783002060606060628
:10046000F0F8181810F8F802060606027E7E181832
:1004700018F8F00606060602F8F8101818F8F07ECC
:100480007E0206060602D8D85858F8F0020606067C
:1004900006020000F8F80066667E3E06068FC9492F
:1004A00049FF96080E0E08080E06F8F8000000F83E
:1004B000F802060606027E7EF8F83636FEFF0336A0
:1004C00036000818B0E040F8F804060200007E7E0E
:1004D000F8F87E7EF8F80000F8F80000F8F8020658
:1004E0000606020606020606F8F8000000F8F80202
:1004F000060606020606F0F8181818F8F0020606B6
:1005000006060602F0F8181810FFFF02060606029B
:100510000606FFFF101818F8F00606020606060287
:10052000000000F8F806060206063078D89806069D
:1005300006021818F8F00006061E1E06F8F8101835
:1005400018F8F00606000000060600C0F03838F083
:10055000C000060600000000060600C0F038F8C023
:10056000C0F838F0C00006060000000606000000D3
:10057000060608B8F040F0B80804060200020604B7
:1005800000C0F03C3FF3C000060600000000060675
:1005900098D878380606060680FC7E06027EFCC0E7
:1005A000FEFEFEFE067EFC80C0FC7E0270781830E7
:1005B00060783800000000000000FC041414F464AB
:1005C00004FC1E1010161610101E13A60A0B206035
:1005D00000010306050807010303030502040103E4
:1005E00005030505050505050505010205050505C4
:1005F000090705060605050706010506040706079F
:10060000050707050706070907070602030205068F
:100610000205050505050305050102050107050598
:100620000505030502050507050505030103050981
:100630007E2020A06060804048E85EE85E480020A0
:10064000002000008C12FF22C400206020000C1249
:10065000CC2010CC22C00020000000002000043874
:10066000986444A418000020404020000E00F804C4
:10067000022040800204F8804020140E1400000084
:100680002020F820200000000000000080601010F2
:100690001010000000000400807806200000F8041C
:1006A0000404F82040404020FC0080602000C42466
:1006B000140C042040404020B8444404082040402A
:1006C000402010FC10D0300060200000384444442A
:1006D000E8404040600038444444F8204040402016
:1006E00000C0300C006040404040B8444444B82052
:1006F00040404020F8242424C8204040402084006A
:100700000008806088885050200000000000505091
:100710005050500000000000205050888800000019
:100720000000040262120C0000200000F804F20A2B
:100730000AF21A84782040C0A0A0A0A080400C300B
:10074000D010D0300C00002040200000B8444444B9
:10075000FC20404040600804040408F02040404071
:100760002000F008040404FC0020404040604444A1
:100770004444FC404040406000404040FC40404019
:100780004060382424040408F02040404040200009
:10079000FC40404040FC600000000060FC60F80449
:1007A00004041860000000000408906020FC402051
:1007B00000000060040404FC00000060FC80700C79
:1007C0007080FC60200000002060FC0830C000FC4D
:1007D000600000002060F00804040408F0002040DD
:1007E00040402000C0202020FC2040404060F20C0F
:1007F00014040408F00020404040200004C83020C9
:100800002020FC00204040404060182444448820C0
:1008100040404020000000FC00000040404060409C
:100820004040F804040404F860000000006000C0C8
:10083000380438C0004020000000204000F804F8D0
:1008400000F804F800600000006000000060040888
:100850009060900804402000000020400080403C50
:100860004080004020000000204004844424140CF8
:10087000604040404040FE02E0800678800000205A
:1008800002FE80E0100C020C1000000000000000CE
:1008900000000000808080808080010200007CA831
:1008A000A4A458000000000078848448FC000000E4
:1008B000006048848484780000000000FC48848440
:1008C00078600000000068A4A4A478000000000084
:1008D0000080FC404020FE49858579000000000032
:1008E0007C808040FC0000000060FC40FE01400075
:1008F00084483010FC0000000060FC607C80807C3C
:100900008080FC000000000000007C808040FC0033
:10091000000000007884848478000000000078845F
:100920008448FF0000000000FF4884847800000035
:10093000000080C0FC0000004894A4A4480000000F
:10094000000084F80060FC080404F80000000000C7
:10095000C0380438C00000000000F00C7080700C3B
:10096000F0000000000000008448304884000000CF
:100970000000C038063DC1000000000084C4A494FB
:100980008C000000000040BC02006080FEE002BC61
:100990004080600020103020100000000000FE02A7
:1009A000020202020202FE2020202020202020201D
:1009B0000F8E0A0A206000010304050706010202E7
:1009C00003050203010304030404050404040404EE
:1009D00001020404040408050506060505060601CF
:1009E00004050407060605060705050605090505AD
:1009F00005020302030502040404040402040401C2
:100A000001050107040404040304020405050505A7
:100A1000040301030407BE00060006000000F82ED0
:100A2000F82E000000004C92FF926400004000008D
:100A3000048A64104CA24000000000000000609E88
:100A40009A6660800000000000000600FC02408002
:100A500002FC80400C060C00000010107C101000FE
:100A60000000000000804000202020000000040062
:100A700080700C400000F80404F800404000FC8046
:100A800040400000C424148C00404000D824048856
:100A90000040400010FC90503000400000003844FE
:100AA000C46840404000982424F800404000807012
:100AB0000C0040404040D82424D800404000F82496
:100AC00024C800404000440000884000102828440A
:100AD00000000000282828280000000044282810D2
:100AE000000000000402B20C00000000F804728A4A
:100AF0008AFA847800408080808080400C709070FA
:100B00000C0000400000FE9292926C000000000079
:100B10007C8282828244000000000000FE82828289
:100B2000827C000000000000FE9292929200000081
:100B30000000FE1212121200000000007C8282925D
:100B40009274000000000000FE10101010FE000063
:100B500000000000FE004080807E00000000FE10CB
:100B60002844820000000000FE8080800000000019
:100B7000FE0638C03806FE00000000000000FE043B
:100B8000182040FE0000000000007C828282827CEF
:100B9000000000000000FE1212120C000000000015
:100BA0007C8282A2C27C000000000040FE12121271
:100BB000324C80000000000000004C9292926400D1
:100BC000000000000000FC000040404040407E80EB
:100BD0008080807E0000000000000678807806009B
:100BE0000000000006788078067880780600000013
:100BF000000000000000826C106C82000000000009
:100C0000020CF00C020000000000C2A2928A8600D2
:100C100000000000FE02C0800638C000000002FE96
:100C200080C00C020C0000000000000000808080EA
:100C300080800204000048A8A8F000000000FE88A0
:100C400088700000000044444438000000007088B0
:100C500088FE000000003454543800000000FC0AF4
:100C60000000708888F880808040FE0808F000004E
:100C700000007C40FA40FE20304880000000000068
:100C8000FC403C40403C40407C0000000000000034
:100C9000F80808F00000000070888870000000006C
:100CA000F8888870C0000000708888F8000000C0D4
:100CB000F8100800000090A8A848000000007C88F8
:100CC0000000788080F800000000403804384000C0
:100CD0000000000078C038C03800000000008850D4
:100CE000205088000000000008708070088080405C
:100CF0000000C8A898880000000020DC02004080A6
:100D0000FEC002DC20804000201020100000000007
:100D1000FE8282828282FE0000000000000000004D
:100D200000000000000000000000000000000000C3
:100D300000000000000000000000000000000000B3
:100D40000000000000001FFFF6FFFFFFFFFFFEFF97
:100D5000FFFEFCFC9832391B0F3FFFFFFFFFBDFE7B
:100D6000FF58F180F1EE98F0E080000000000000F4
:100D700000000080C0C0F0F0F8FCFC4C7E5E5FFF1D
:100D8000FFFF9FEF0F0F0F0F0F0F1F1E3E7EBC7C4C
:100D9000FCF8F0F0C0C0800000000000000000007F
:100DA000000000000080C0E0F0F0F8F8FCFCFCFE61
:100DB000FEFEFFFFFFFFFFEFCFCF6FBFFFFEFEFE88
:100DC000FCFCFCFCF8F0F0E1C7DF7FFFFF7F7F3F1A
:100DD0003F3B3F3F3F3E3950583C080F07FFFA3D2D
:100DE0005E8F0911D95AC8184019913FFC00406024
:100DF000783E3F1F0F070703010101037FDB9F1BA5
:100E00001D0B1D381D90B7FBEFFABCFF3B301000E7
:100E100000010305070F3F7F7EF0100080000000F7
:100E2000C0F0F8FEFFFFFFFF7FFFFFFFFFFFFFFFA8
:100E3000FFFFFFFFFFFFFFFFFF3F7E7EFFFEF8F09B
:100E4000F040C103070F3F7F7FBFFFFFFCE8A0C05A
:100E5000000480E000000000000000000EFFFDC75D
:100E600003000000010000000000E078BF00000067
:100E7000000000000000000000000000C0FF002093
:100E80002020000000000000C060B1FBCE9C688004
:100E900080C0C08C0000000002413FB88F7CF8FF8A
:100EA000FFFFFFFFFFFFFFFFFFFFFFFFFFFFFFFF52
:100EB000FFFFFFFFFFFFFFFFFFFFFFF8F0E1030F62
:100EC000FFE1FFFEFEE040C00000010003010080E2
:100ED000EE90EFF3F2F2BC9810A0F470BC3F0F015B
:100EE000000000000060601C3E9F0D8380C040C079
:100EF0006060F0303010080406020201000080C07B
:100F0000C080207060B04E51011E100902E7C2B5CA
:100F1000FFFF77BFC000000080803101C5D0FFFF18
:100F2000FFFFFFFFFFFFFFF3C3EBFFCFCFCFDFEFED
:100F3000CFEFFFFFDFFFFFFFFFFFFFFFFFFF7F00A0
:100F400018FBFFFFFFDFCD5F05000000860010C02B
:100F50003FF74322614302178F8F070403001008F5
:100F6000000000528101010000000003000404049D
:100F70001C78E4F820D8C8C8CCF4D6BEBADDF9E9AC
:100F80006540C3C1C1C0606060F0DCFCFF57DBDFBF
:100F9000FF7E1F03C0F00E1A0A836C171F01073F64
:100FA0007FFFFFFFFFFFFFFFFFFFFFFBFFFFFFFFD5
:100FB000FFFFFFFFBFFFFFFFFFFFFFEFFFFFFEFE93
:100FC000FFFFFBFFFF7F1F0100D0307A5A03008034
:100FD000F8F7FCFEFEFFFFFF7F77F010080400A08B
:100FE000000810000102141C007000000000000046
:100FF0000000010303070E1F3F737347C7830F0FE2
:101000000FD41E1F1C1F1F978E0D0F4727A3B399C8
:101010009C5C7E7F381E1C0E070100000000000053
:101020000001070F1F3FFFFFFBFFFFFFFFFFFFFF59
:10103000FFFFFFFFFFBFF7D7FFC3EF466F7F3F1FE5
:10104000DFEFEFF361FCFCC460C04000087CFEFFF2
:10105000FFFFFFFFFFFFFFFEFFFDFFF9860000001F
:101060004040C0C00098DA3A2C02000000000000A6
:10107000000000000000000000000000000100026D
:101080000202020202020202020202020300000045
:101090000000000000000000000000000000000050
:1010A000000000000000000001030307070F061FF7
:1010B0001F1E3335242D2D2B273527202317231BC7
:1010C0001D1D050F070303010100000000000307B9
:1010D0000F3F7F7F7FFFFFFFFFFFFFFFFFF8F0F075
:1010E000F0703A1F0503010000000000000000003E
:1010F00000000000000000000000000000000000F0
:1011000000000000000000000000000000000000DF
:10111000000000000000000000000000000000408F
:101120007A10F35A00A0724E18090010A5D4E800F6
:1011300000E87648170000E40B54020000CA9A3B0E
:10114000000000E1F5050000809698000000404294
:101150000F000000A0860100000010270000000022
:10116000E803000000006400000000000A00000026
:1011700000000100000000002C76D888DC674F08D2
:1011800023DFC1DFAE59E1B1B796E5E3E453C63AD8
:10119000E651997696E8E6C28426EB898C9B62ED4F
:1011A000407C6FFCEFBC9C9F40F2BAA56FA5F49009
:1011B000055A2AF75C936B6CF9676DC11BFCE0E480
:1011C0000D47FEF520E6B500D0ED902E03009435D6
:1011D00077050080841E080000204E0A000000C829
:1011E0000C333333330F986E12831141EF8D21147A
:1011F000893BE65516CFFEE6DB18D1844B381BF74A
:101200007C1D901DA4BBE424203284725E228100E8
:10121000C9F124ECA1E53D2711241FBECFEFD0E199
:10122000DEBFCDBF15E0A0E0B1E0ECEBF5E502C01C
:1012300005900D92AC31B107D9F71EE0ACE1B5E0F5
:1012400001C01D92A63DB107E1F70E9440110C9428
:10125000DC2A0C940000FC01849108959093AD0663
:101260008093AC067093AB066093AA064093A606E3
:1012700008950F931F93082F8091AC069091AD06AF
:10128000E091AA06F091AB0604960995182F80917B
:10129000AC069091AD06E091AA06F091AB060596DA
:1012A0000995482F0117D8F0202F30E0812F90E0CA
:1012B000840F911D2817390794F4011B202F30E06B
:1012C0002A5F3F4F8091AC069091AD06E091AA064F
:1012D000F091AB06820F931F09958F5F01C080E0EC
:1012E0001F910F9108950F931F93CF93DF938C015C
:1012F000C0E0D0E006C00F5F1F4F0E943909C80F41
:10130000D11DF80180818823B1F7CE01DF91CF9103
:101310001F910F9108950F931F93CF93DF93EC01CB
:1013200000E010E007C02196F90184910E9439097C
:10133000080F111D9E01FE0184918823A1F7C801A9
:10134000DF91CF911F910F910895DF93CF930F926B
:10135000CDB7DEB7982F662319F4DB98DC9A04C06A
:10136000613011F4DC98DB9AD998DA988FEF84BB5E
:1013700095BBD89A000000000000D898198203C0DD
:1013800089818F5F898389818830D0F315BA0F9066
:10139000CF91DF9108951F9387FD80E0603408F0BE
:1013A00060E08093A7066093A806669566956695AB
:1013B0006093A906803410F460E002C0805461E0BC
:1013C00080640E94A5091091A906186B812F60E026
:1013D0000E94A509812F61E00E94A5091F9108952F
:1013E0001F93DF93CF930F92CDB7DEB715BA14BA20
:1013F0009091A706903418F4DB98DC9A02C0DC9830
:10140000DB9A903431F4882321F080E461E00E947B
:10141000A509D99ADA9AD89A00000000000013B3FF
:10142000D898198203C089818F5F89838981883028
:10143000D0F38FEF84BB8091A7066091A8060E942D
:10144000CB0980911C0581111095812F0F90CF91B0
:10145000DF911F910895DF92EF92FF920F931F93F8
:10146000DF93CF930F92CDB7DEB7F82E8091A7060A
:1014700087FD8BC0803418F4DB98DC9A02C0DC98BE
:10148000DB9A803419F461E00E94A509D99ADA98B0
:101490000FEF04BB1091A806177009F45EC0DBB211
:1014A00081E00E94F00980E00E94F009DBBA04BBF1
:1014B000EF2CFF24012F10E09701002E02C0220F15
:1014C000331F0A94E2F7982F922B80911C0581110B
:1014D000909595BBD89A000000000000D89819821A
:1014E00003C089818F5F898389818830D0F36091BF
:1014F000A806685F8091A7060E94CB0981E00E9440
:10150000F00980E00E94F009DBBA9FEF94BB28E06D
:1015100030E0201B310B02C0F594E7942A95E2F7E6
:10152000282F2E2980911C058111209525BBD89A42
:10153000000000000000D898198203C089818F5FE5
:10154000898389818830D0F38091A7066091A806AD
:1015500068508F5F0E94CB0917C080911C058111D4
:10156000F094F5BAD89A000000000000D8981982CB
:1015700003C089818F5F898389818830D0F380910E
:10158000A7068F5F8093A70615BA0F90CF91DF91C2
:101590001F910F91FF90EF90DF9008952F923F924F
:1015A0004F925F926F927F928F929F92AF92BF9273
:1015B000CF92DF92EF92FF920F931F93CF93DF931F
:1015C000082F8091AC069091AD06E091AA06F091AB
:1015D000AB0603960995C82E8091AC069091AD0696
:1015E000E091AA06F091AB0604960995182F809118
:1015F000AC069091AD06E091AA06F091AB06059677
:101600000995D82E5090A7062090A806011708F437
:10161000A0C0202F30E0812F90E08D0D911D281764
:1016200039070CF096C0E02EE11A00E010E0FF242C
:10163000C6E0D0E008C0C9018C0F9D1F0995080FB6
:10164000111DF39421962091AC063091AD06E091E6
:10165000AA06F091AB06FE1470F3CC2DD0E02796CD
:10166000CE0143E0959587954A95E1F72797382E67
:10167000AC01409FC001419F900D509F900D1124DF
:10168000CD2CDD2446E050E0C40ED51EC80ED91E78
:101690008E2D90E00696820F931F0995682E98E094
:1016A000E92EF12CEC1AFD0A7724882488E0A82E74
:1016B000B12C43C04E2C8601080D111D992424C065
:1016C0008091AC069091AD06E091AA06F091AB0630
:1016D000800F911F0995982FCA15DB0544F490E0FF
:1016E000042C02C0959587950A94E2F7982F809173
:1016F000A6068F3F11F4892F02C0892F80950E9482
:101700002B0A93940F5F1F4F9614D0F28091A60678
:101710008F3F11F480E001C08FEF0E942B0A60918F
:10172000A806685F852D0E94CB097394860C88E01B
:1017300090E0A80EB91EE80EF91E731408F4BACF93
:101740005394852D860D622D0E94CB0920E030E058
:1017500002C021E030E0C901DF91CF911F910F91CC
:10176000FF90EF90DF90CF90BF90AF909F908F90C1
:101770007F906F905F904F903F902F9008950F93C0
:101780001F93CF93DF93EC010091A70617C08A3017
:1017900091F41091A8068091AC069091AD06E0916D
:1017A000AA06F091AB0603960995180F802F612FBA
:1017B0000E94CB0902C00E94CE0A2196FE018491AC
:1017C000882329F7DF91CF911F910F9108950F93EF
:1017D0001F93CF93DF93EC010091A70617C08A30C7
:1017E00091F41091A8068091AC069091AD06E0911D
:1017F000AA06F091AB0603960995180F802F612F6A
:101800000E94CB0902C00E94CE0A219688818823BB
:1018100031F7DF91CF911F910F9108950F931F938F
:10182000162F042F687F0E94CB0981E00E94F009E7
:1018300080E00E94F009482F212F30E00F3F59F43B
:101840002770307081E090E002C0880F991F2A95C0
:10185000E2F7842B0BC02770307081E090E002C06B
:10186000880F991F2A95E2F7809584230E942B0AFE
:101870001F910F910895AF92BF92CF92DF92EF9296
:10188000FF920F931F93CF93DF93B82EA42EE22ED7
:10189000E394462F4770F62EF41ACE2DD0E0642F35
:1018A00070E028E030E0C901861B970BC817D90704
:1018B0005CF42C1B3D0B8FEF90E002C09595879553
:1018C0002A95E2F70E2D03C008E0041B8FEF90E08D
:1018D00002C0880F991F6A95E2F7D82E8B2D6F2DC5
:1018E0000E94CB0910E0CD2CC09481E00E94F00949
:1018F00080E00E94F009982F8C2D892390959D21DE
:10190000892B0E942B0A1F5FA11678F714C088E06C
:10191000F80E8B2D6F2D0E94CB0910E081E00E9404
:10192000F00980E00E94F00980950E942B0A1F5F59
:10193000A116A0F7085F202F30E0C90107968C1789
:101940009D072CF30E1528F5C21BD30B8FEF90E0EB
:1019500002C0880F991FCA95E2F7082F009588E00A
:10196000F80E8B2D6F2D0E94CB0910E0F02EF09415
:1019700081E00E94F00980E00E94F009982F8F2DED
:10198000892390959023892B0E942B0A1F5FA11613
:1019900078F7DF91CF911F910F91FF90EF90DF903B
:1019A000CF90BF90AF9008951F93182F80911C0582
:1019B000811741F080E060E04FE72FE30E943B0C8D
:1019C00010931C051F9108959F92AF92BF92CF92E2
:1019D000DF92EF92FF920F931F93CF93DF93B82E76
:1019E000942EE22EA02EE394462F4770F62EF41A82
:1019F000CE2DD0E0642F70E028E030E0C901861BD6
:101A0000970BC817D9075CF42C1B3D0B8FEF90E0A8
:101A100002C0959587952A95E2F70E2D03C008E040
:101A2000041B8FEF90E002C0880F991F6A95E2F7C0
:101A3000D82E8B2D6F2D0E94CB0910E0CD2CC09499
:101A400081E00E94F00980E00E94F0099FEFA91652
:101A500011F48D2901C08C210E942B0A1F5F911661
:101A600078F70EC088E0F80E8B2D6F2D0E94CB0901
:101A700010E08A2D0E942B0A1F5F9116D0F7085F95
:101A8000202F30E0C90107968C179D075CF30E15D7
:101A900028F5C21BD30B8FEF90E002C0880F991F6F
:101AA000CA95E2F7E82EE09498E0F90E8B2D6F2DA1
:101AB0000E94CB0910E0FE2CF09481E00E94F00916
:101AC00080E00E94F0099FEFA91611F48E2901C051
:101AD0008F210E942B0A1F5F911678F7DF91CF911B
:101AE0001F910F91FF90EF90DF90CF90BF90AF903C
:101AF0009F9008950F931092A7061092A806109237
:101B0000A90680931C058FEF8ABB8FE360E00E94DB
:101B1000A5098FE361E00E94A50980EC60E00E94C6
:101B2000A50980EC61E00E94A50980E060E04FE734
:101B30002FE300E00E94E40C80E060E00E94CB090B
:101B40000F9108952F923F924F925F926F927F92E2
:101B50008F929F92AF92BF92CF92DF92EF92FF92BD
:101B60000F931F93DF93CF93CDB7DEB72C970FB6AC
:101B7000F894DEBF0FBECDBF8F83688749872A8761
:101B8000C02EDD24C601880F991F22273327281B6A
:101B9000390B3E832D832D5F3F4F3C872B873F8042
:101BA000300E262E200E342F8F81380F3B83301BB2
:101BB0003C839A85960F9983901B9A83432C522CD1
:101BC000632E792EAA24BB24882499241C2D022D4F
:101BD0000C19842D602F4E2D0E940E0CF32CFC1836
:101BE0008F2D652D4E2D0E940E0C862D602F4E2DB3
:101BF0000E940E0C0C810C0D802F652D4E2D0E9425
:101C00000E0CFA811F0F862D612F4E2D0E940E0C97
:101C1000802F672D4E2D0E940E0C842D612F4E2D8E
:101C20000E940E0C8F2D672D4E2D0E940E0C2B85C1
:101C30003C8537FF07C02A5F3F4F280D391D3C8781
:101C40002B8715C08B859C850A969C878B87C50141
:101C50008C199D09880F991F880F991FEB85FC85AA
:101C6000E80FF91FFC87EB870894C108D108089496
:101C7000A11CB11C4A945A946394739424E030E0FC
:101C8000820E931ECA14DB040CF0A0CF1D81F984D0
:101C9000F10E832D68854F2D20E00E2D0E94E40C5F
:101CA000832D69814F2D20E00E94E40C3A85130FAB
:101CB0008F81622D40E0212F0E94E40C8B81622DE8
:101CC00040E0212F0E94E40C2C960FB6F894DEBF62
:101CD0000FBECDBFCF91DF911F910F91FF90EF907D
:101CE000DF90CF90BF90AF909F908F907F906F903C
:101CF0005F904F903F902F900895CF92DF92EF9298
:101D0000FF920F931F93182FF62ED42EC22E20E091
:101D10000E94E40C6C2D6F0D812F4D2D20E00E9450
:101D2000E40C812F6F2D40E02C2D0E94E40C8D2DB2
:101D3000810F6F2D40E02C2D0E94E40C1F910F911C
:101D4000FF90EF90DF90CF9008954F925F926F9247
:101D50007F928F929F92AF92BF92CF92DF92EF923B
:101D6000FF920F931F93CF93DF93D82EC62EF42E9E
:101D7000E22E502E841751F4261710F4E62EC22EB0
:101D8000EC188D2D6C2D40E02E2D0BC0621769F4E0
:101D9000481710F4FD2CD42EFD188D2D6C2D4F2DD1
:101DA00020E0052D0E94E40CD6C0622F70E04C2D7F
:101DB00050E02F2D30E0281B3109CB01841B950BFF
:101DC0008217930734F4461B570B421753070CF442
:101DD00062C0FD1430F48F2DFD2CD82E8E2DEC2CEE
:101DE000C82E4F2C4D18EE2DF0E02C2D30E04F0179
:101DF000821A930AA42CBB2488EC90E0AC01849E48
:101E0000C001859E900D949E900D1124B5010E94F5
:101E10009828EB010C2DFF2439016E1A7F0A8F2DB3
:101E200090E08C9F90018D9F300D9C9F300D112470
:101E3000C90168EC70E00E949828162F1C0DC9019A
:101E400068EC70E00E9498288436910514F01F5FBA
:101E500005C05FEF8D3995070CF411504F2D4D0DD6
:101E6000842F602F212F052D0E94A50E8A149B041C
:101E70002CF0CE1418F4012F0F5F09C06A147B04F4
:101E80002CF0EC1418F4012F015001C0012FF39431
:101E90004F1428F660C0EC1428F48F2DFD2CD82E9A
:101EA000EC2CC62E4E2C4C18EF2DF0E02D2D30E0F2
:101EB0004F01821A930AA42CBB2488EC90E0AC0159
:101EC000849EC001859E900D949E900D1124B501B5
:101ED0000E949828EB014D2DEE2439016E1A7F0ADD
:101EE0008E2D90E08C9F90018D9F300D9C9F300D2A
:101EF0001124C90168EC70E00E949828162F1D0D6E
:101F0000C90168EC70E00E9498288436910514F0AD
:101F10001F5F05C05FEF8D3995070CF411502E2D12
:101F20002C0D842F622F412F052D0E94A50E8A149F
:101F30009B042CF0DF1418F4412F4F5F09C06A1482
:101F40007B042CF0FD1418F4412F415001C0412FA7
:101F5000E3944E1428F6DF91CF911F910F91FF90DB
:101F6000EF90DF90CF90BF90AF909F908F907F9039
:101F70006F905F904F9008951F920F920FB60F923F
:101F800011248F939F93AF93BF9380911D059091E0
:101F90001E05A0911F05B09120050196A11DB11D40
:101FA00080931D0590931E05A0931F05B0932005F7
:101FB000BF91AF919F918F910F900FBE0F901F9087
:101FC00018956F927F928F929F92AF92BF92CF920D
:101FD000DF92EF92FF920F931F93DF93CF93CDB7D2
:101FE000DEB73C01FA01DC018C91DB018C93D3015B
:101FF00011968C911197808312968C911297818300
:1020000040E050E009C0F901E40FF51F12968C91F1
:10201000129780834F5F5F4F1196401751079CF3D3
:10202000D301A40FB51FFA01E01BF10BEE0DFF1D4C
:10203000C00ED11E06C012968C91129781934F5FED
:102040005F4F11964C155D05B4F3D301A40FB51F76
:10205000FA01EC19FD09EA0DFB1D8C0C9D1C06C054
:1020600012968C91129781934F5F5F4F119648158E
:102070005905B4F3CF91DF911F910F91FF90EF902D
:10208000DF90CF90BF90AF909F908F907F906F9098
:10209000089580913905882319F40E94641C0895DD
:1020A00080913905813019F40E94461A0895809173
:1020B0003905833071F1809139058530A1F40E9492
:1020C000811600D080E091E0EDB7FEB79283818366
:1020D0000E94102A81E090E09093380580933705A4
:1020E0000F900F90089580913905863091F460919A
:1020F0007E0E70917F0E8091800E9091810E2091C6
:10210000820E3091830E4091840E5091850E0E9474
:10211000D618089580913905813071F483E0809359
:1021200039050E949E160397E1F481E090E09093B8
:1021300038058093370519C080913905833011F433
:1021400085E005C080913905853021F486E08093D3
:1021500039050BC080913905863039F481E08093D0
:10216000390510923805109237050E9449100895DC
:102170001F920F920FB60F9211242F933F934F93FC
:102180005F936F937F938F939F93AF93BF93EF93DF
:10219000FF9381B182958695877090E081709070F1
:1021A00090932C0580932B051092280510922705FB
:1021B0003DC081B182958695877090E08170907066
:1021C00090932C0580932B0580912F0590913005DD
:1021D00001969093300580932F0580912F05909163
:1021E0003005805095406CF080912705909128052E
:1021F0000196909328058093270510923005109240
:102200002F0580912705909128058639910574F056
:1022100081E090E00E948A1081E090E090932E058A
:1022200080932D0590932C0580932B0580912B0591
:1022300090912C05892B09F4BCCF80912D059091AC
:102240002E05892B21F480E090E00E948A101092E4
:10225000300510922F0510922E0510922D05FF913A
:10226000EF91BF91AF919F918F917F916F915F910E
:102270004F913F912F910F900FBE0F901F90189587
:102280002F923F924F925F926F927F928F929F9286
:10229000AF92BF92CF92DF92EF92FF920F931F9374
:1022A000DF93CF93CDB7DEB7C154D0400FB6F894CB
:1022B000DEBF0FBECDBF8AE08EBD80E094E29BBD45
:1022C0008ABD80E187BF80911D0590911E05A09178
:1022D0001F05B09120058093210590932205A093BE
:1022E0002305B09324050E94CB1C81E060E240E00E
:1022F0000E94E42283E090E00E942A1480E093E0B0
:102300009093D30E8093D20E1D821C8205C08C81C7
:102310009D8101969D838C838C819D818051974204
:10232000B0F380E00E947A0D1D821C8205C08C8172
:102330009D8101969D838C838C819D8180519742E4
:10234000B0F30E9405160E941E167894109239056B
:102350000E94491081E0809339050E94491000D005
:1023600083E191E0EDB7FEB7928381830E94102A4A
:102370000F900F90B2E26B2E712C6C0E7D1EAEE0B2
:102380002A2E312C2C0E3D1E2E010894411C511C6E
:10239000809139058530A1F08091370590913805FD
:1023A000019709F0B3C10CC060913E0570913F05E3
:1023B0008091400590914105409139050E948E1A07
:1023C0000E94F41C882381F30E94741D882361F30A
:1023D000C30160E270E00E94991D0E94841FC30146
:1023E000B201AE014E5F5F4F9E012A5E3F4F0CE08F
:1023F00010E0F6E0EF2EF12CEC0EFD1EE8E0CE2E04
:10240000D12C5101B8E08B2E912C0E94E10F8981D3
:10241000882309F084C0C301B201AE014E5F5F4F53
:102420009E012A5E3F4FA6E0EA2EF12CEC0EFD1E27
:102430000E94E10F8DB79EB740970FB6F8949EBFEC
:102440000FBE8DBFEDB7FEB7319688E291E0ADB714
:10245000BEB712969C938E9311978A819B8193832A
:1024600082838E899F89A88DB98D84839583A68365
:10247000B7838A8D9B8DAC8DBD8D80879187A28718
:10248000B3878E8D9F8DA8A1B9A184879587A687D4
:10249000B7870E94102AADB7BEB716960FB6F8944C
:1024A000BEBF0FBEADBFEDB7FEB7319684E491E07D
:1024B00012969C938E9311978A819B81938382833A
:1024C0008E819F8195838483888599859783868370
:1024D0008A859B85918780870E94102AEDB7FEB779
:1024E000319685E591E0ADB7BEB712969C938E9379
:1024F00011978A819B81938382838E859F859583A3
:10250000848388899989978386838A899B8991871F
:1025100080870E94102AADB7BEB71A9656C0813088
:1025200009F059C0C301B201AE014E5F5F4F2AE806
:102530003EE00CE010E0F6E0EF2EF12CEC0EFD1E7C
:10254000CC24DD245101882499240E94E10FEDB7A9
:10255000FEB770970FB6F894FEBF0FBEEDBF319671
:1025600086E691E0ADB7BEB712969C938E93119715
:102570008A819B819383828380918A0E90918B0EB6
:10258000A0918C0EB0918D0E84839583A683B78322
:1025900080918E0E90918F0EA091900EB091910E21
:1025A00080879187A287B3878091920E9091930E36
:1025B000A091940EB091950E84879587A687B787D2
:1025C0000E94102AADB7BEB750960FB6F894BEBFA2
:1025D0000FBEADBF9BC0823009F098C0C301B201ED
:1025E000AE014E5F5F4F2EE73EE00CE010E0E6E00C
:1025F000EE2EF12CEC0EFD1ECC24DD24510188249E
:1026000099240E94E10FEDB7FEB770970FB6F894CA
:10261000FEBF0FBEEDBF319682E891E0ADB7BEB709
:1026200012969C938E9311978A819B8193838283C8
:1026300080917E0E90917F0EA091800EB091810EC0
:1026400084839583A683B7838091820E9091830EB5
:10265000A091840EB091850E80879187A287B38761
:102660008091860E9091870EA091880EB091890E70
:1026700084879587A687B7870E94102AADB7BEB713
:1026800050960FB6F894BEBF0FBEADBF8EE991E075
:102690000E94252A8EE991E00E94252A8EE991E088
:1026A0000E94252A8EE991E00E94252A8EE991E078
:1026B0000E94252A8EE991E00E94252A8EE991E068
:1026C0000E94252A8EE991E00E94252A8EE991E058
:1026D0000E94252A8EE991E00E94252A8EE991E048
:1026E0000E94252A8EE991E00E94252A8EE991E038
:1026F0000E94252AB6E0B093390580E060E04FE7FC
:102700002FE300E00E94E40C0E94491060913E0516
:1027100070913F05809140059091410540913905A8
:102720000E948E1A35CE1F920F920FB60F9211246F
:102730002F933F934F935F936F937F938F939F93C9
:10274000AF93BF93EF93FF930E944915FF91EF91D1
:10275000BF91AF919F918F917F916F915F914F91B9
:102760003F912F910F900FBE0F901F9018951F92C1
:102770000F920FB60F9211242F933F934F935F93B5
:102780006F937F938F939F93AF93BF93EF93FF9339
:102790000E944915FF91EF91BF91AF919F918F9149
:1027A0007F916F915F914F913F912F910F900FBE4D
:1027B0000F901F9018951F920F920FB60F92112431
:1027C0002F938F939F93EF93FF939BB12CB1E09145
:1027D000E805EF5FEF718091E905E81711F482E0F9
:1027E00008C0892F8871E093E805F0E0EA53FA4FBA
:1027F00020838093EA05FF91EF919F918F912F9114
:102800000F900FBE0F901F9018951F920F920FB64A
:102810000F9211248F939F93EF93FF939091E6056E
:102820008091E705981761F0E091E705EF5FEF779A
:10283000E093E705F0E0EA5BFA4F80818CB901C0D4
:102840005598FF91EF919F918F910F900FBE0F9030
:102850001F9018959C011092E6051092E7051092C2
:10286000E8051092E90597FF03C082E08BB93F7736
:102870003093900029B988E98AB986E08093950061
:1028800008959091E8058091E905981719F420E0E2
:1028900031E012C0E091E905EF5FEF71E093E905E7
:1028A000F0E0EA53FA4F30812091EA05922F80E060
:1028B000AC01430F511D9A01C9010895282F909131
:1028C000E6059F5F9F778091E7059817E1F3E92F71
:1028D000F0E0EA5BFA4F20839093E605559A08955D
:1028E000CF93DF93EC0103C021960E945E14888190
:1028F0008823D1F7DF91CF910895CF93DF93EC0137
:1029000002C00E945E14FE01219684918823C9F7BB
:10291000DF91CF9108951F920F920FB60F9211245D
:102920002F938F939F93EF93FF9390919B00209110
:102930009C00E0918D06EF5FEF7180918E06E817A5
:1029400011F482E008C0892F8871E0938D06F0E0D1
:10295000E559F94F208380938F06FF91EF919F9166
:102960008F912F910F900FBE0F901F9018951F926F
:102970000F920FB60F9211248F939F93EF93FF93B3
:1029800090918B0680918C06981769F0E0918C06E7
:10299000EF5FEF77E0938C06F0E0E551FA4F80812E
:1029A00080939C0005C080919A008F7D80939A004F
:1029B000FF91EF919F918F910F900FBE0F901F90FD
:1029C00018959C0110928B0610928C0610928D0621
:1029D00010928E0697FF04C082E080939B003F77A1
:1029E000309398002093990088E980939A0086E0BC
:1029F00080939D00089590918D0680918E06981782
:102A000019F420E031E012C0E0918E06EF5FEF7123
:102A1000E0938E06F0E0E559F94F308120918F0662
:102A2000922F80E0AC01430F511D9A01C901089516
:102A3000282F90918B069F5F9F7780918C06981727
:102A4000E1F3E92FF0E0E551FA4F208390938B06F4
:102A500080919A00806280939A000895CF93DF93CB
:102A6000EC0103C021960E94181588818823D1F7B4
:102A7000DF91CF910895CF93DF93EC0102C00E94C4
:102A80001815FE01219684918823C9F7DF91CF9113
:102A90000895DF93CF9300D0CDB7DEB781B1829593
:102AA00081708093CC0E81B1881F8827881F809306
:102AB000CD0E1A82198205C089819A8101969A8366
:102AC000898389819A81C297B8F38091960E882371
:102AD00061F48091970E882341F48091CC0E882375
:102AE00021F48091CD0E813081F18091960E882362
:102AF00061F48091970E813041F48091CC0E813049
:102B000021F48091CD0E813001F18091960E8130BB
:102B100061F48091970E813041F48091CC0E813028
:102B200021F48091CD0E882381F08091960E813022
:102B3000B1F48091970E882391F48091CC0E882374
:102B400071F48091CD0E813051F480919206909174
:102B500093060196909393068093920649C08091C4
:102B6000960E882361F48091970E882341F480911A
:102B7000CC0E813021F48091CD0E813081F1809195
:102B8000960E813061F48091970E882341F48091F4
:102B9000CC0E813021F48091CD0E813001F18091F5
:102BA000960E813061F48091970E813041F48091CE
:102BB000CC0E882321F48091CD0E813081F080915C
:102BC000960E8823A9F48091970E813089F4809124
:102BD000CC0E882369F48091CD0E882349F480912E
:102BE000900690919106019690939106809390069D
:102BF0008091CC0E8093960E8091CD0E8093970E8F
:102C00000F900F90CF91DF91089582B18F7682B9A6
:102C100083B1806983B91ABE8AB781648ABF89B7D4
:102C2000806989BF8FB780688FBF81B180718093C1
:102C3000960E81B180788093970E089515981D980F
:102C40008AB788608ABF89B7806289BF8FB780687A
:102C50008FBF0895AC0120E030E002C02F5F3F4FEE
:102C6000FA01E20FF31F80818823C1F7B90175953E
:102C70006795DA0120E030E006C09C9180818D9359
:102C800090832F5F3F4F319726173707B4F3CA0160
:102C900008950F931F93CF93DF93062F142FE9010D
:102CA000882319F484E990E009C0813019F48AEC92
:102CB00095E004C0823039F480EB99E06BE279E072
:102CC0004FEF0E942E09802F612F0E94CB0900D068
:102CD00000D00AE91EE0EDB7FEB712830183D4836A
:102CE000C3830E945A2A0F900F900F900F90C80133
:102CF0000E942A160E94E70BDF91CF911F910F913E
:102D000008950F931F93182F80E060E04FE72FE3A3
:102D100000E00E94E40C81E068E248E220E034E058
:102D20000E944916173039F481E065E048E22BE152
:102D300034E00E9449161F910F9108950F931F933D
:102D400080E060E04FE72FE300E00E94E40C81E0C8
:102D500065E04DE220E234E00E94491680911905B9
:102D600090911A058130910531F481E067E54EE1DB
:102D700022E434E008C08230910541F481E069E347
:102D80004EE12CE434E00E94491613C0039789F405
:102D900080E060E04FE72FE300E00E94E40C81E078
:102DA00068E24EE120E634E00E94491623E030E07C
:102DB0003FC080E06FE048E023E734E00E9449161E
:102DC00082E368E00E94CB09209115053091160539
:102DD00040911705509118058DB79EB708970FB60B
:102DE000F8949EBF0FBE8DBFEDB7FEB731960AE9CE
:102DF0001EE0ADB7BEB712961C930E93119786E7EF
:102E000094E09383828324833583468357830E948F
:102E10005A2A8DB79EB708960FB6F8949EBF0FBE7C
:102E20008DBFC8010E942A160E94E70B20E030E007
:102E3000C9011F910F9108954F925F926F927F92F7
:102E40008F929F92AF92BF92CF92DF92EF92FF92BA
:102E50000F931F93CF93DF93142F2DEC3CEC4CE199
:102E600051E40E94EC262B013C0180E061E04EE73A
:102E70002EE300E00E94E40C80919C0690919D0658
:102E80008F57904090939D0680939C06112351F498
:102E900080919C0690919D06059690939D06809347
:102EA0009C0615C0113099F480919C0690919D0666
:102EB000059790939D0680939C0680919C06909127
:102EC0009D0697FF04C010929D0610929C068EE707
:102ED00090E087C0E0919C06F0919D06EE0FFF1FE9
:102EE000EE0FFF1FE255F94FE080F1800281138160
:102EF000C301B20120E030E04AE754E40E943528E3
:102F00005B016C01C801B7012DEC3CEC4CE151E4D4
:102F10000E94EC2620E030E04AE754E40E94352885
:102F200020E030E04CE752E40E943528A6019501EC
:102F30000E9450270E94B827EB016034710510F001
:102F4000C0E0D0E080919C0690919D06855791400D
:102F50000CF160917A0E70917B0E80917C0E9091B5
:102F60007D0E2DEC3CEC4CE151E40E94EC2620E07F
:102F700030E04AE754E40E94352820E030E04CE796
:102F800052E40E943528A60195010E9450270E9414
:102F9000B827EB01882D6C2F4FEF0E940E0C80910B
:102FA0009C0690919D06892B51F040919E06842F9E
:102FB0008F5F6091A2062C2F0FEF0E94A50ED09379
:102FC000A306C093A20680919C0690919D0601964F
:102FD00090939D0680939C0680919E0690919F06FB
:102FE000019790939F0680939E0680909E069090F6
:102FF0009F0697FE6FCFDF91CF911F910F91FF90AA
:10300000EF90DF90CF90BF90AF909F908F907F9088
:103010006F905F904F9008958F929F92AF92BF9262
:10302000CF92DF92EF92FF920F931F93CF93DF9394
:103030002DEC3CEC4CE151E40E94EC264B015C0190
:1030400080E060E04FE72FE300E00E94E40C8FE7B0
:1030500060E040E020E00FEF0E94A50E8FE76FE3F5
:103060004FE720E00E94A50E10929D0610929C064C
:103070008EE790E05FC0E0919C06F0919D06EE0F18
:10308000FF1FEE0FFF1FE255F94F608171818281B2
:1030900093812DEC3CEC4CE151E40E94EC2620E0C5
:1030A00030E04AE754E40E94352820E030E04CE765
:1030B00052E40E9435287B018C01C501B40120E057
:1030C00030E04AE754E40E9435289B01AC01C80176
:1030D000B7010E9450270E94B827EB0160347105A8
:1030E00010F0C0E0D0E08C2D6C2F4FEF0E940E0C42
:1030F00080919C0690919D06892B51F040919E06EF
:10310000842F8F5F6091A2062C2F0FEF0E94A50ED7
:10311000D093A306C093A20680919C0690919D0631
:10312000019690939D0680939C0680919E069091B7
:103130009F06019790939F0680939E06C0909E06DF
:10314000D0909F06D7FE97CF8FE790E090939D0693
:1031500080939C068AE067E14EE62EE000E00E9444
:10316000E40C8AE067E14EE62EE00FEF0E947D0E50
:1031700081E06DE049E12CE734E00E9449168BEFD5
:103180009FEF90939106809390069093930680937F
:103190009206DF91CF911F910F91FF90EF90DF90FA
:1031A000CF90BF90AF909F908F9008954F925F9275
:1031B0006F927F928F929F92AF92BF92CF92DF9247
:1031C000EF92FF920F931F93DF93CF9300D000D025
:1031D000CDB7DEB75B016C0129833A834B835C83F7
:1031E000609115057091160580911705909118054D
:1031F000A60195010E9435282B013C0180E060E08A
:103200004FE72FE300E00E94E40C8AE36DE245E41F
:103210002EE00FEF0E947D0E80E06DE24AE32EE08B
:103220000E947D0E81E063E44FE226E934E00E94D3
:10323000491681E062E04FE225EA34E00E94491637
:103240008BE16FE20E94CB098DB79EB708970FB64E
:10325000F8949EBF0FBE8DBFEDB7FEB731964AE919
:10326000E42E4EE0F42EADB7BEB71296FC92EE926D
:1032700011973AEA832E34E0932E93828282A482BD
:10328000B582C682D7820E945A2AEDB7FEB7389619
:103290000FB6F894FEBF0FBEEDBFC7010E942A16FD
:1032A0000E94E70B8AE36FE145E42EE00E947D0E69
:1032B00080E06FE14AE32EE00E947D0E81E06DE345
:1032C00041E22FEA34E00E94491681E066E041E2E3
:1032D0002DEB34E00E9449168BE161E20E94CB099C
:1032E0008DB79EB708970FB6F8949EBF0FBE8DBFDF
:1032F000EDB7FEB73196ADB7BEB71296FC92EE921F
:10330000119781EC94E09383828389819A81AB81C8
:10331000BC8184839583A683B7830E945A2AADB764
:10332000BEB718960FB6F894BEBF0FBEADBFC701AB
:103330000E942A160E94E70B8AE361E145E42EE031
:103340000E947D0E80E061E14AE32EE00E947D0E46
:1033500081E066E443E126EC34E00E94491681E016
:1033600066E043E122ED34E00E94491686E163E124
:103370000E94CB09EDB7FEB738970FB6F894FEBFA1
:103380000FBEEDBF3196ADB7BEB71296FC92EE926E
:1033900011979382828244825582668277820E944C
:1033A0005A2AEDB7FEB738960FB6F894FEBF0FBE97
:1033B000EDBFC7010E942A160E94E70B8AE363E073
:1033C00045E42EE00E947D0E80E063E04AE32EE0BB
:1033D0000E947D0E81E066E445E024ED34E00E9429
:1033E000491681E066E045E020EE34E00E9449168F
:1033F00086E165E00E94CB098DB79EB708970FB6AE
:10340000F8949EBF0FBE8DBF0DB71EB70F5F1F4F45
:10341000ADB7BEB71296FC92EE92119782EE94E091
:10342000F80193838283C301B20129813A814B81E0
:103430005C810E943528D80114966D937D938D93FD
:103440009C9317970E945A2AEDB7FEB738960FB68D
:10345000F894FEBF0FBEEDBFC7010E942A160E945E
:10346000E70B0F900F900F900F90CF91DF911F916E
:103470000F91FF90EF90DF90CF90BF90AF909F9013
:103480008F907F906F905F904F9008950F93DF9390
:10349000CF9300D0CDB7DEB780E060E04FE72FE3F9
:1034A00000E00E94E40C1A82198205C089819A8189
:1034B00001969A83898389819A8188589341B0F3D0
:1034C00080E060E04FE72FE300E00E94E40C80E042
:1034D0006FE246E227EE34E00E94491680E06CE39A
:1034E00044E125EF34E00E94491680E06AE144E0BF
:1034F00020E035E00E94491683E090E090931A05A1
:103500008093190585E166E24EE52FE00E943B0CB1
:103510000F900F90CF91DF910F910895AF92BF92CE
:10352000CF92DF92FF920F931F935B016C01F42EF9
:1035300080919006909191060A970CF448C081E022
:10354000481709F044C08091190590911A058230FE
:10355000910579F485E164E04EE52FE00E943B0C93
:1035600085E164E14EE52FE00E943B0C81E090E0B4
:1035700022C08330910579F485E166E24EE52FE0C3
:103580000E943B0C85E164E04EE52FE00E943B0C7D
:1035900082E090E010C0019791F485E164E14EE58E
:1035A0002FE00E943B0C85E166E24EE52FE00E9491
:1035B0003B0C83E090E090931A05809319051092DC
:1035C00091061092900610929306109292068091A6
:1035D0009206909193060A970CF448C091E0F91670
:1035E00009F044C08091190590911A058230910527
:1035F00079F485E164E04EE52FE00E943B0C85E123
:1036000066E24EE52FE00E943B0C83E090E022C092
:103610008330910579F485E166E24EE52FE00E9462
:103620003B0C85E164E14EE52FE00E943B0C81E01C
:1036300090E010C0019791F485E164E14EE52FE040
:103640000E943B0C85E164E04EE52FE00E943B0CBC
:1036500082E090E090931A058093190510929106EC
:10366000109290061092930610929206809119057E
:1036700090911A05039709F4CAC080919006909121
:10368000910603970CF45FC0A3E0FA1609F05BC043
:103690006091150570911605809117059091180598
:1036A00020E030E040E05FE30E94EC2660931505E7
:1036B00070931605809317059093180582E368E0D0
:1036C00048E224E100E00E94E40C82E368E00E940A
:1036D000CB092091150530911605409117055091A1
:1036E00018058DB79EB708970FB6F8949EBF0FBE0A
:1036F0008DBFEDB7FEB731960AE91EE0ADB7BEB794
:1037000012961C930E93119786E794E0938382831D
:1037100024833583468357830E945A2A8DB79EB7E8
:1037200008960FB6F8949EBF0FBE8DBFC8010E94C9
:103730002A160E94E70B10929106109290061092A2
:1037400093061092920680919206909193060397A9
:103750000CF45DC093E0F91609F059C060911505AD
:1037600070911605809117059091180520E030E0C2
:1037700040E05FE30E94EB26609315057093160509
:10378000809317059093180582E368E048E224E1EE
:1037900000E00E94E40C82E368E00E94CB092091E3
:1037A0001505309116054091170550911805ADB7D4
:1037B000BEB718970FB6F894BEBF0FBEADBFEDB73A
:1037C000FEB731960AE91EE012961C930E931197EC
:1037D00086E794E0938382832483358346835783EB
:1037E0000E945A2A8DB79EB708960FB6F8949EBFCE
:1037F0000FBE8DBFC8010E942A160E94E70B1092CF
:103800009106109290061092930610929206809163
:10381000900690919106029784F099E0F91669F468
:10382000C601B50140E00E941C171092910610924B
:1038300090061092930610929206809192069091B3
:103840009306029784F0A9E0FA1669F4C601B5015F
:1038500041E00E941C17109291061092900610925F
:103860009306109292061F910F91FF90DF90CF90D8
:10387000BF90AF900895EF92FF920F931F93CF9355
:10388000DF938C01FF2416C0F801EC0FFD1FE490BC
:103890008C2F6F2D0E94CB098E2D0E942B0A219612
:1038A000C038D10589F700581F4F88E0F80E80E432
:1038B000F81619F0C0E0D0E0E7CFDF91CF911F916B
:1038C0000F91FF90EF9008950F93DF93CF9300D067
:1038D00000D0CDB7DEB780E060E04FE72FE300E037
:1038E0000E94E40C8EE19DE00E943B1C1A8219822A
:1038F00012C01C821B8205C08B819C8101969C8317
:103900008B838B819C818055934CB0F389819A8104
:1039100001969A83898389819A810A9750F30F903F
:103920000F900F900F90CF91DF910F910895DF933B
:10393000CF9300D0CDB7DEB781E090E09A83898342
:1039400089819A8105C089819A8101979A838983A7
:1039500089819A8118161906B4F389819A81019692
:103960009A8389830F900F90CF91DF910895DF9311
:10397000CF930F92CDB7DEB78983898105C00E94AE
:10398000971C89818150898389818823C1F70F9091
:10399000CF91DF91089587B3876487BB87B3877D15
:1039A00087BBC09A8DB181618DB96E9A08958FB928
:1039B000779BFECF8FB10895C69A0895C698089553
:1039C000C6980895C69A089588B390E026E0969523
:1039D00087952A95E1F781700895C0980895C09A57
:1039E000089588B38170089586B38295869587700F
:1039F00080958170089590E08E7090709595879570
:103A00000895DF92EF92FF920F931F93CF93DF936E
:103A10007B01D42EEC0100E010E00DC0DD2029F088
:103A200088810E94D71C888303C088810E94D71C8C
:103A30000F5F1F4F21960E151F0580F3DF91CF9169
:103A40001F910F91FF90EF90DF900895DF92EF921A
:103A5000FF920F931F93DF93CF930F92CDB7DEB7F3
:103A60008B017A01D22EC0988983CE01019661E044
:103A700070E041E00E94011DC801B7014D2D0E9478
:103A8000011DC09A89810F90CF91DF911F910F91F5
:103A9000FF90EF90DF9008958FEF60E070E040E0DE
:103AA00050E021E00E94261D08950E944C1D0895BB
:103AB0000E944C1D90E08E709070959587950895AA
:103AC0000E944C1D90E054E0969587955A95E1F739
:103AD000817008950E944C1D90E065E09695879551
:103AE0006A95E1F7817008950E944C1D90E076E0A0
:103AF000969587957A95E1F78170089583EE60E059
:103B000070E040E050E021E00E94261D089582EE22
:103B100060E070E040E050E021E00E94261D089542
:103B200081EE60E070E040E050E021E00E94261D60
:103B300008959C01AB01C69881E6B90121E00E947D
:103B4000261DC69A08958F7121E00E94261D0895B2
:103B5000AF92BF92CF92DF92EF92FF920F931F939B
:103B6000DF93CF9300D000D00F92CDB7DEB76C01BA
:103B700000E010E0EE24FF245E010894A11CB11CBB
:103B8000802FB50145E050E00E94A31DD601AE0D87
:103B9000BF1D20E030E0A8014A50504007C042302D
:103BA000510518F00031110571F41196F501E20F7D
:103BB000F31F80818C930894E11CF11C2F5F3F4F11
:103BC0002530310561F70F5F1F4F08311105C1F630
:103BD0000F900F900F900F900F90CF91DF911F914A
:103BE0000F91FF90EF90DF90CF90BF90AF9008952E
:103BF000DF93CF930F92CDB7DEB787E1BE016F5F42
:103C00007F4F41E050E00E94A31D898181700F9099
:103C1000CF91DF910895DF93CF930F92CDB7DEB7A9
:103C200087E1BE016F5F7F4F41E050E00E94A31D1E
:103C3000898190E09695879581700F90CF91DF9163
:103C40000895DF93CF930F92CDB7DEB787E1BE0122
:103C50006F5F7F4F41E050E00E94A31D898190E09B
:103C6000F4E096958795FA95E1F781700F90CF91E2
:103C7000DF910895DF93CF930F92CDB7DEB787E141
:103C8000BE016F5F7F4F41E050E00E94A31D89811C
:103C900090E0A5E096958795AA95E1F781700F9041
:103CA000CF91DF910895DF93CF930F92CDB7DEB719
:103CB00087E1BE016F5F7F4F41E050E00E94A31D8E
:103CC000898190E0B6E096958795BA95E1F7817085
:103CD0000F90CF91DF910895DF93CF930F92CDB7DF
:103CE000DEB787E1BE016F5F7F4F41E050E00E9489
:103CF000A31D89810F90CF91DF910895DF93CF931A
:103D00000F92CDB7DEB789E0BE016F5F7F4F41E014
:103D100050E00E94A31D8981811181E00F90CF9115
:103D2000DF9108951F93DF93CF930F92CDB7DEB746
:103D3000182F863010F080E010C082E0BE016F5F67
:103D40007F4F41E050E00E94A31D898190E002C0B6
:103D5000959587951A95E2F781700F90CF91DF9135
:103D60001F9108951F93DF93CF930F92CDB7DEB7C6
:103D7000182F863010F080E010C081E0BE016F5F28
:103D80007F4F41E050E00E94A31D898190E002C076
:103D9000959587951A95E2F781700F90CF91DF91F5
:103DA0001F910895DF93CF930F92CDB7DEB788E0D0
:103DB000BE016F5F7F4F41E050E00E94A31D8981EB
:103DC0008F700F90CF91DF910895DF93CF930F9273
:103DD000CDB7DEB788E0BE016F5F7F4F41E050E0B6
:103DE0000E94A31D898182958F700F90CF91DF91E2
:103DF0000895DF93CF930F92CDB7DEB788E0BE0171
:103E00006F5F7F4F41E050E00E94A31D89810F90BA
:103E1000CF91DF910895DF93CF930F92CDB7DEB7A7
:103E200085E0BE016F5F7F4F41E050E00E94A31D1F
:103E300089810F90CF91DF910895DF93CF930F92F7
:103E4000CDB7DEB780E0BE016F5F7F4F41E050E04D
:103E50000E94A31D89810F90CF91DF910895DF9378
:103E6000CF930F92CDB7DEB7863010F080E009C057
:103E70008F5EBE016F5F7F4F41E050E00E94A31D47
:103E800089810F90CF91DF9108958F71806220E03A
:103E90000E94261D0895DF93CF930F92CDB7DEB712
:103EA00080E1898387E0BE016F5F7F4F41E050E092
:103EB0000E94451F0F90CF91DF910895DF93CF931C
:103EC0000F92CDB7DEB780E2898387E0BE016F5FD6
:103ED0007F4F41E050E00E94451F0F90CF91DF914E
:103EE0000895DF93CF930F92CDB7DEB780E4898337
:103EF00087E0BE016F5F7F4F41E050E00E94451FA9
:103F00000F90CF91DF910895DF93CF930F92CDB7AC
:103F1000DEB780E7898387E0BE016F5F7F4F41E0B6
:103F200050E00E94451F0F90CF91DF9108950E94AD
:103F3000871D0E94901D0E94841F0895EF92FF929A
:103F40001F93DF93CF930F92CDB7DEB7182F863034
:103F500028F582E07E010894E11CF11CB70141E0E4
:103F600050E00E94A31D2981822F90E0012E02C003
:103F7000959587950A94E2F780FF10C081E090E064
:103F800002C0880F991F1A95E2F7809582238983D2
:103F900082E0B70141E050E00E94451F0F90CF91B1
:103FA000DF911F91FF90EF900895EF92FF921F9382
:103FB000DF93CF930F92CDB7DEB7182F863020F561
:103FC00082E07E010894E11CF11CB70141E050E061
:103FD0000E94A31D2981822F90E0012E02C0959599
:103FE00087950A94E2F780FD0FC081E090E002C05F
:103FF000880F991F1A95E2F7282B298382E0B701D1
:1040000041E050E00E94451F0F90CF91DF911F913A
:10401000FF90EF900895EF92FF921F93DF93CF935D
:104020000F92CDB7DEB7182F863028F581E07E01DC
:104030000894E11CF11CB70141E050E00E94A31D6F
:104040002981822F90E0012E02C0959587950A94D0
:10405000E2F780FF10C081E090E002C0880F991F56
:104060001A95E2F780958223898381E0B70141E0C8
:1040700050E00E94451F0F90CF91DF911F91FF905C
:10408000EF900895EF92FF921F93DF93CF930F92DB
:10409000CDB7DEB7182F863020F581E07E01089479
:1040A000E11CF11CB70141E050E00E94A31D2981F1
:1040B000822F90E0012E02C0959587950A94E2F731
:1040C00080FD0FC081E090E002C0880F991F1A9513
:1040D000E2F7282B298381E0B70141E050E00E94FC
:1040E000451F0F90CF91DF911F91FF90EF900895A2
:1040F000DF93CF930F92CDB7DEB7898385E0BE0102
:104100006F5F7F4F41E050E00E94451F0F90CF91BD
:10411000DF9108950F931F93DF93CF930F92CDB745
:10412000DEB785E08E010F5F1F4FB80141E050E020
:104130000E94A31D85E0B80141E050E00E94451FA8
:104140000F90CF91DF911F910F910895DF93CF933F
:104150000F92CDB7DEB78F77898385E0BE016F5FA1
:104160007F4F41E050E00E94451F0F90CF91DF91BB
:104170000895DF93CF930F92CDB7DEB7898380E0A8
:10418000BE016F5F7F4F41E050E00E94451F0F90DE
:10419000CF91DF910895DF93CF930F92CDB7DEB724
:1041A0008983663058F4813248F4862F8F5EBE01D1
:1041B0006F5F7F4F41E050E00E94451F0F90CF910D
:1041C000DF9108959C01FB01463030F4842F865F17
:1041D000B901AF010E94451F08959C01AB0180E128
:1041E000B9010E94451F08950F931F93DF93CF934A
:1041F0000F92CDB7DEB780E08E010F5F1F4FB80181
:1042000041E050E00E94A31D898180FF09C08E7F9C
:10421000898380E0B80141E050E00E94451FC698C4
:104220000F90CF91DF911F910F910895FF920F93FF
:104230001F93DF93CF930F92CDB7DEB7F82E80E0B8
:104240008E010F5F1F4FB80141E050E00E94A31D97
:10425000898180FD0DC08160898380E0B80141E0E3
:1042600050E00E94451FFF2011F0C69A01C0C69879
:104270000F90CF91DF911F910F91FF900895DF93E1
:10428000CF930F92CDB7DEB78D7F898380E0BE01DB
:104290006F5F7F4F41E050E00E94451FC6980F902E
:1042A000CF91DF9108950F931F93DF93CF930F92D8
:1042B000CDB7DEB780E08E010F5F1F4FB80141E040
:1042C00050E00E94A31D898181FF09C08D7F8983F1
:1042D00080E0B80141E050E00E94451FC6980F9071
:1042E000CF91DF911F910F910895C69A0E94971C5C
:1042F0000E94971C0E94971CC69808950F931F93C5
:104300009C01FB01142F80EAB901AF0120E00E945B
:10431000261D082F112311F00E947521802F1F9157
:104320000F9108951F93DF93CF930F92CDB7DEB710
:10433000182F6260698380E0BE016F5F7F4F41E0AC
:1043400050E00E94451F86E90E94B71C86E90E9442
:10435000B71C86E90E94B71C898180FF04C0112325
:1043600011F0C69A01C0C6980F90CF91DF911F91AE
:104370000895682F6E7F61FF04C080E00E94922143
:104380000895862F0E943F210895616061FF03C058
:104390000E9492210895862F0E943F2108951F9325
:1043A000DF93CF930F92CDB7DEB76983882311F0E7
:1043B00019E001C018E081E1BE016F5F7F4F41E06D
:1043C00050E00E94451F81E0612F0E9492210F90D2
:1043D000CF91DF911F9108952F923F924F925F925C
:1043E0006F927F928F929F92AF92CF92DF92EF92D5
:1043F000FF920F931F93DF93CF9300D000D00F92C3
:10440000CDB7DEB7F82ED62E122F3401498C5A8C38
:104410002F8C38A0498381E04E010894811C911CA7
:10442000B40141E050E00E94451F198382E0B401CD
:1044300041E050E00E94451F098383E0B40141E060
:1044400050E00E94451FE98284E0B40141E050E061
:104450000E94451FC98285E0B40141E050E00E94FE
:10446000451FA98286E0B40141E050E00E94451F4B
:104470006114710411F0C30107C087EE89838A8338
:104480008B838C838D83C40165E070E040E00E94E3
:10449000E2204114510411F0C20108C082EC89836A
:1044A0008A838B838C838D83CE01019665E070E0D7
:1044B00041E00E94E2208B8D89838E010F5F1F4FA8
:1044C000C80161E070E042E00E94E2208C8D8983A7
:1044D000C80161E070E043E00E94E2208D8D898395
:1044E000C80161E070E044E00E94E2208E8D898383
:1044F000C80161E070E045E00E94E220211431042F
:1045000011F0C10107C087EE89838A838B838C8376
:104510008D83C80165E070E00E94ED2089A1898348
:1045200081E18E010F5F1F4FB80141E050E00E9412
:10453000451F8AA1898382E1B80141E050E00E94D1
:10454000451F8BA1898383E1B80141E050E00E94BF
:10455000451F8CA1898384E1B80141E050E00E94AD
:10456000451F8DA1898385E1B80141E050E00E949B
:10457000451F8EA1898386E1B80141E050E00E9489
:10458000451FF1FE07C080E0D11081E06F2D0E9431
:10459000922103C08F2D0E943F210F900F900F900A
:1045A0000F900F90CF91DF911F910F91FF90EF909F
:1045B000DF90CF90AF909F908F907F906F905F90A3
:1045C0004F903F902F9008958F929F92AF92CF92ED
:1045D000EF920F93882311F09BE001C09AE02DB772
:1045E0003EB72E5030400FB6F8943EBF0FBE2DBFE1
:1045F000EDB7FEB73196ADB7BEB712961C921E92BC
:10460000119783EC828384EC838385EC848386EC2E
:104610008583178216826087118612861386148618
:104620001586892F61E023E003E05FE0E52E32E2AA
:10463000C32E9FE0A92E882499240E94EC212DB737
:104640003EB7225F3F4F0FB6F8943EBF0FBE2DBF5F
:104650000F91EF90CF90AF909F908F900895FF9221
:104660000F931F93DF93CF930F92CDB7DEB7F82E42
:1046700080E08E010F5F1F4FB80141E050E00E94C3
:10468000A31D898181FD19C08260898380E0B80102
:1046900041E050E00E94451F86E90E94B71C86E970
:1046A0000E94B71C86E90E94B71C898180FF04C064
:1046B000FF2011F0C69A01C0C6980F90CF91DF91EC
:1046C0001F910F91FF900895A1E1B0E0EAE6F3E2B7
:1046D0000C94AB283C017F876E876A01FC0117822E
:1046E0001682838181FD03C06FEF7FEF6FC39E0150
:1046F0002F5F3F4F398B288BF3012381EE85FF8598
:1047000023FD859123FF8191FF87EE87882309F49C
:104710005AC3853251F4EE85FF8523FD859123FF31
:104720008191FF87EE87853229F490E0B3010E94E2
:10473000E429E2CF982F10E0882499241032B0F4B5
:104740009B3269F09C3228F4903251F0933271F42C
:104750000BC09D3239F0903349F4116028C01260CB
:10476000146025C0186023C0106121C017FD2AC045
:10477000892F80538A3078F416FF06C0FAE09F9E96
:10478000902C1124980E13C03AE0839E802C1124A3
:10479000880E10620CC09E3221F416FD14C3106402
:1047A00006C09C3611F4106802C0983659F4EE85A4
:1047B000FF8523FD959123FF9191FF87EE87992334
:1047C00009F0BCCF892F8554833020F4812F80617C
:1047D000905E07C0892F8556833008F09FC1812FD6
:1047E0008F7E86FD02C076E0972E6FE3F62EF822CC
:1047F000953619F4F0E4FF2A07C0963619F420E83C
:10480000F22A02C091109A94F7FE0AC03BE33915D0
:1048100018F45CE3B52E02C0B92CB39427E009C0AC
:1048200047E0491520F4BB2447E0942EF7CF292D0B
:10483000BB24C60104969D878C87F6016081718137
:1048400082819381AE014F5F5F4F0B2D0E94F6284E
:104850006C010981202E332400FF04C003FD02C037
:104860001DE209C0F1FE02C01BE205C0F2FC02C05D
:1048700010E001C010E2C1018C709070892BB9F179
:10488000112311F483E001C084E0881510F088241E
:104890000AC0881AF3FC07C080E290E0B3010E94CE
:1048A000E4298A94C9F7112329F0812F90E0B301FC
:1048B0000E94E42923FE03C00CE810E00EC000E9CA
:1048C00010E00BC0E114F10409F0805290E0B30154
:1048D0000E94E4290F5F1F4F05C0EF2CFF24F0E179
:1048E000EF22FF24F8018491882361F714C1F7FEB9
:1048F00012C0BC0C24FE04C08A81813309F4BA942E
:104900001B141CF0BB24B3942DC0F8E0FB1550F52C
:1049100038E0B32E27C0F6FC25C0892D90E08C1519
:104920009D054CF02CEFC2162FEFD20624F030E894
:10493000F32A01C09A94992049F0E2E0F0E0EC0FEC
:10494000FD1FE90DF11D80818033A1F3F7FE0AC040
:10495000B92CB394892D90E0C816D90614F0992487
:1049600001C09C18F7FC03C025E030E009C01C140E
:104970001D041CF021E030E003C096012F5F3F4F83
:10498000112311F02F5F3F4F992029F0892D90E0DE
:104990000196280F391F882D90E02817390714F049
:1049A000882401C0821A4F2C5524C201897090704E
:1049B000892B39F008C080E290E0B3010E94E4291D
:1049C0008A948820C1F7112329F0812F90E0B30148
:1049D0000E94E42943FE07C008C080E390E0B301D1
:1049E0000E94E4298A948820C1F7F7FE46C0860118
:1049F000D7FE02C000E010E076010894E11CF11C33
:104A0000E01AF10A41E050E04C0F5D1FE40EF51E84
:104A100026014B185108892D90E0AA24BB24A81A1E
:104A2000B90A5FEF0F3F150729F48EE290E0B3015A
:104A30000E94E429C016D10634F0401651061CF439
:104A4000F701808101C080E3015010400894E11C0F
:104A5000F11C0A151B052CF090E0B3010E94E4291B
:104A6000E0CF0C151D0539F49A81963318F495336F
:104A700011F424FE81E390E04BC08A81813309F078
:104A80000F7E90E0B3010E94E4299920A1F08EE20C
:104A900090E0B3010E94E42912E0E1E0F0E0EC0FC5
:104AA000FD1FE10FF11D1F5F808190E0B3010E94A7
:104AB000E4299A9491F744FC03C085E690E002C093
:104AC00085E490E0B3010E94E429D7FC05C0C1143D
:104AD000D10441F404FF06C0D094C194D108D3940A
:104AE0008DE201C08BE290E0B3010E94E42980E3F3
:104AF00005C08F5F26EF3FEFC20ED31E3AE0C3160C
:104B0000D104BCF790E0B3010E94E429C601C0962D
:104B1000B3010E94E429CC84DD8452C1933631F084
:104B2000933799F0933509F059C023C0F60180817D
:104B300089835E010894A11CB11C22E030E0C20E02
:104B4000D31E21E0E22EF12C12C0F601A080B1802C
:104B500016FD03C06FEF7FEF02C0692D70E022E009
:104B600030E0C20ED31EC5010E94D9297C011F77F7
:104B700013C0F601A080B18016FD03C06FEF7FEF78
:104B800002C0692D70E022E030E0C20ED31EC501E4
:104B90000E94CE297C01106813FF07C01BC080E271
:104BA00090E0B3010E94E4298A94882D90E0E816F1
:104BB000F906A8F30FC0F50117FD859117FF819144
:104BC0005F0190E0B3010E94E42981108A94089467
:104BD000E108F108E114F10471F7F2C0943611F024
:104BE000993689F517FF08C0F6012081318142818D
:104BF000538184E090E00AC0F601808191819C019C
:104C0000442737FD4095542F82E090E0C80ED91E0E
:104C10009FE6F92EF12257FF09C050954095309537
:104C200021953F4F4F4F5F4F90E8F92ACA01B901D4
:104C3000AE014F5F5F4F2AE030E00E947E2AE82EEF
:104C4000E889EE1A41C0953721F41F7E2AE030E052
:104C50001CC0197F9F3661F0903720F4983509F019
:104C6000B2C00FC0903739F0983709F0ACC004C01B
:104C700028E030E00AC0106114FD146020E130E04B
:104C800004C014FD166020E132E017FF08C0F601F1
:104C9000608171818281938144E050E008C0F60117
:104CA00080819181BC0180E090E042E050E0C40E40
:104CB000D51EAE014F5F5F4F0E947E2AE82E5889B5
:104CC000E51A8FE7F82EF122F6FE0BC08EEFF822E0
:104CD000E91438F4F4FE07C0F2FC05C09FEEF92297
:104CE00002C01E2D01C0192DF4FE0DC0FE01EE0DF7
:104CF000F11D8081803319F4E9EEFE2208C01F5FA8
:104D0000F2FE05C003C08F2D867809F01F5F0F2DBE
:104D1000F3FC14C0F0FE0FC0181510F09E2C0BC051
:104D20009E2C980C911A182D06C080E290E0B301D9
:104D30000E94E4291F5F1815C0F304C0181510F471
:104D4000811A01C0882404FF0FC080E390E0B30102
:104D50000E94E42902FF1DC001FD03C088E790E026
:104D60000EC088E590E00BC0802F867891F001FF9F
:104D700002C08BE201C080E2F7FC8DE290E0B3015B
:104D80000E94E42906C080E390E0B3010E94E42978
:104D90009A94E914C0F3EA94E1E0F0E0EC0FFD1F0F
:104DA000EE0DF11D808190E0B3010E94E429EE2018
:104DB00091F706C080E290E0B3010E94E4298A9452
:104DC0008820C1F799CCF30166817781CB01619688
:104DD000E2E10C94C7285058BB27AA270ED00BC17C
:104DE000FCD030F001D120F031F49F3F11F41EF4DB
:104DF000F1C00EF4E095E7FBE7C0E92F0DD180F399
:104E0000BA17620773078407950718F071F49EF5C7
:104E100025C10EF4E0950B2EBA2FA02D0B01B90180
:104E200090010C01CA01A0011124FF27591B99F020
:104E3000593F50F4503E68F11A16F040A22F232F2C
:104E4000342F4427585FF3CF469537952795A7957C
:104E5000F0405395C9F77EF41F16BA0B620B730B23
:104E6000840BBAF09150A1F0FF0FBB1F661F771F94
:104E7000881FC2F70EC0BA0F621F731F841F48F449
:104E8000879577956795B795F7959E3F08F0B3CFCF
:104E90009395880F08F09927EE0F979587950895B9
:104EA0000CD0A9C0A1D040F098D030F021F45F3FE1
:104EB00019F08AC05111D3C08DC0AED098F3992398
:104EC000C9F35523B1F3951B550BBB27AA276217CE
:104ED0007307840738F09F5F5F4F220F331F441F13
:104EE000AA1FA9F333D00E2E3AF0E0E830D091504B
:104EF0005040E695001CCAF729D0FE2F27D0660F38
:104F0000771F881FBB1F261737074807AB07B0E876
:104F100009F0BB0B802DBF01FF2793585F4F2AF08C
:104F20009E3F510568F050C09AC05F3FECF3983E39
:104F3000DCF3869577956795B795F7959F5FC9F7E9
:104F4000880F911D9695879597F90895E1E0660F72
:104F5000771F881FBB1F621773078407BA0720F0EB
:104F6000621B730B840BBA0BEE1F88F7E095089554
:104F70005BD088F09F5790F0B92F9927B751A0F0D8
:104F8000D1F0660F771F881F991F1AF0BA95C9F7DD
:104F900012C0B13081F062D0B1E008955FC0672FD8
:104FA000782F8827B85F39F0B93FCCF3869577958D
:104FB0006795B395D9F73EF4909580957095619576
:104FC0007F4F8F4F9F4F089597F99F6780E870E05C
:104FD00060E008959FEF80EC089500240A9416166F
:104FE000170618060906089500240A9412161306D7
:104FF000140605060895092E0394000C11F4882365
:1050000052F0BB0F40F4BF2B11F460FF04C06F5F80
:105010007F4F8F4F9F4F089557FD9058440F551F56
:1050200059F05F3F71F04795880F97FB991F61F02A
:105030009F3F79F087950895121613061406551FA1
:10504000F2CF4695F1DF08C0161617061806991F0D
:10505000F1CF86957105610508940895E894BB2702
:1050600066277727CB0197F908950BD0C4CFB5DF1A
:1050700028F0BADF18F0952309F0A6CFABCF1124A2
:10508000EECFCADFA0F3959FD1F3950F50E0551FE7
:10509000629FF001729FBB27F00DB11D639FAA278D
:1050A000F00DB11DAA1F649F6627B00DA11D661FDC
:1050B000829F2227B00DA11D621F739FB00DA11DFD
:1050C000621F839FA00D611D221F749F3327A00DB7
:1050D000611D231F849F600D211D822F762F6A2F53
:1050E00011249F5750408AF0E1F088234AF0EE0FD8
:1050F000FF1FBB1F661F771F881F91505040A9F7E5
:105100009E3F510570F060CFAACF5F3FECF3983E11
:10511000DCF3869577956795B795F795E7959F5F4B
:10512000C1F7FE2B880F911D9695879597F90895E5
:1051300097FB092E07260AD077FD04D043D006D06E
:1051400000201AF4709561957F4F0895F6F79095B9
:1051500081959F4F08952F923F924F925F926F9249
:105160007F928F929F92AF92BF92CF92DF92EF92F7
:10517000FF920F931F93CF93DF93CDB7DEB7CA1B78
:10518000DB0B0FB6F894DEBF0FBECDBF09942A88A3
:10519000398848885F846E847D848C849B84AA844B
:1051A000B984C884DF80EE80FD800C811B81AA81D8
:1051B000B981CE0FD11D0FB6F894DEBF0FBECDBFA3
:1051C000ED010895AA1BBB1B51E107C0AA1FBB1F1D
:1051D000A617B70710F0A61BB70B881F991F5A9583
:1051E000A9F780959095BC01CD010895283008F06D
:1051F00027E03327DA01990F311D87FD9160009672
:105200006105710539F432602E5F3D9330E32A95D4
:10521000E1F708959F3F30F080387105610509F08E
:105220003C5F3C5F3D93913008F08068911DDF93B7
:10523000CF931F930F93FF92EF92192F987F96951C
:10524000E92F96959695E90FFF27E858FE4E992786
:105250003327EE24FF24A701E70105900894079463
:1052600028F4360FE71EF81E491F511D660F771FE1
:10527000881F991F0694A1F70590079428F4E70E5C
:10528000F81E491F561FC11D770F881F991F661FE3
:105290000694A1F70590079428F4F80E491F561FAD
:1052A000C71FD11D880F991F661F771F0694A1F78E
:1052B0000590079420F4490F561FC71FD81F990F58
:1052C000661F771F881F0694A9F7849110951770A1
:1052D00041F0D695C79557954795F794E7941A9559
:1052E000C1F7EEE1F1E16894159015913591659162
:1052F000959105907FE27395E118F10A430B560BE7
:10530000C90BD009C0F7E10CF11E431F561FC91F7E
:10531000D01D7EF4703311F48A95E6CFE8940150E5
:1053200030F0080F0AF40027021708F4202F239505
:10533000022F7A3328F079E37D932A95E9F710C09C
:105340007D932A9589F606949795679537951795D5
:105350001794E118F10A430B560BC90BD00998F0CA
:1053600023957E9173957A3308F070E37C93201334
:10537000B8F77E9170617D9330F0839571E37D93F2
:1053800070E32A95E1F71124EF90FF900F911F91A0
:10539000CF91DF91992787FD90950895FC010590A5
:1053A000615070400110D8F7809590958E0F9F1F27
:1053B0000895FC016150704001900110D8F780956C
:1053C00090958E0F9F1F08950F931F93CF93DF9398
:1053D0008C01EB018B8181FF1BC082FF0DC02E81F0
:1053E0003F818C819D812817390764F4E881F98118
:1053F0000193F983E88306C0E885F985802F099534
:10540000892B31F48E819F8101969F838E8302C008
:105410000FEF1FEFC801DF91CF911F910F910895FA
:10542000A0E0B0E0E6E1FAE20C94BB28FE0135967C
:10543000619171918091D20E9091D30EAF010E9433
:1054400064232096E2E00C94D7280F931F93CF9308
:10545000DF938C01E091D20EF091D30E838181FF16
:1054600021C0C0E0D0E00DC0E091D20EF091D30E8B
:1054700020853185BF01F9010995892B11F0CFEF06
:10548000DFEFF80181918F01882371F7E091D20E4F
:10549000F091D30E208531858AE0BF01F90109958D
:1054A000892B11F0CFEFDFEFCE01DF91CF911F916C
:1054B0000F910895AEE0B0E0E0E6FAE20C94B9286E
:1054C0000D891E8986E08C831A8309838FEF9FE7FD
:1054D0009E838D839E01275E3F4FCE0101966F898B
:1054E000788DA9010E9464232F813885020F131F34
:1054F000F80110822E96E4E00C94D528FA01AA2730
:10550000283051F1203181F1E8946F936E7F6E5F06
:105510007F4F8F4F9F4FAF4FB1E03ED0B4E03CD0B4
:10552000670F781F891F9A1FA11D680F791F8A1F97
:10553000911DA11D6A0F711D811D911DA11D20D0FE
:1055400009F468943F912AE0269F11243019305DB8
:105550003193DEF6CF010895462F4770405D4193A9
:10556000B3E00FD0C9F7F6CF462F4F70405D4A33F6
:1055700018F0495D31FD4052419302D0A9F7EACFBE
:10558000B4E0A6959795879577956795BA95C9F7ED
:1055900000976105710508959B01AC010A2E0694E0
:1055A0005795479537952795BA95C9F7620F731F99
:0C55B000841F951FA01D0895F894FFCFE4
:1055BC0057414954494E4720464F5220444154418B
:1055CC000A0D0053595354454D20494E49544941F5
:1055DC004C495A45440A0D0025643A41252E34663F
:1055EC002C42252E34662C43252E34662C53313216
:1055FC00330D0A0025643A4425642C4525642C4659
:10560C0025640D0A0025643A4725642C4825642C32
:10561C004925640D0A0025643A4A252E34662C4B24
:10562C00252E34662C4C252E34662C5A3132330DF3
:10563C000A0025643A4D252E34662C4E252E3466F0
:10564C002C50252E34662C5A3132330D0A00262666
:10565C0026262626262626262626262626262626DE
:10566C002626260D000000000000000000000000AF
:10567C00000000000000000000000000000000001E
:10568C00000000000000000000000000000000000E
:10569C0000000000000000000000000000000000FE
:1056AC0000000000000000000000000000000000EE
:1056BC003232333435363738390000000000000000
:1056CC0000000000000000000000000000000000CE
:1056DC0000000000000000000000000000000000BE
:1056EC0000000000000000000000000000000000AE
:1056FC00000000000000000000000000000000009E
:10570C00000000000000000000000000000000008D
:10571C00000000000000000000000000000000007D
:10572C00000000000000000000000000000000006D
:10573C00000000000000000000000000000000005D
:10574C00000000000000000000000000000000004D
:10575C00000000000000000000000000000000003D
:10576C00000000000000000000000000000000002D
:10577C00000000000000000000000000000000001D
:10578C00000000000000000000000000000000000D
:10579C0000000000000000000000000000000000FD
:1057AC0000000000000000000000000000000000ED
:1057BC0000000002000000005E1400000000000069
:1057CC0000000000000000000000000000000000CD
:1057DC0000000000000000000000000000000000BD
:1057EC0000000000000000000000000000000000AD
:1057FC00000000000000000000000000000000009D
:10580C00000000000000000000000000000000008C
:10581C00000000000000000000000000000000007C
:10582C00000000000000000000000000000000006C
:10583C00000000000000000000000000000000005C
:10584C00000000000000000000000000000000004C
:10585C00000000000000000000000000000000003C
:10586C00000000000000000000000000000000002C
:10587C00000000000000000000000000000000001C
:10588C00000000000000000000000000000000000C
:10589C0000000000000000000000000000000000FC
:1058AC0000000000000000000000000000000000EC
:1058BC0057616974696E67202020666F7220202002
:1058CC0064617461202E202E202E00446F6E6500C2
:1058DC0053656C65637420202074686520202077E4
:1058EC0065696768742020206F66202020796F75A9
:1058FC007200536E6174636820203A00436C6561DA
:10590C006E202020262020204A65726B20203A0031
:10591C0050432020204D6F64652020204163746922
:10592C007665004B670025332E3166004163636555
:10593C006C65726174696F6E20202076732E202046
:10594C002054696D6500326E64202050756C6C209B
:10595C0020416363006D2F732200252E31660050A9
:10596C0065616B2056656C6F63697479006D2F737C
:10597C0000252E3266005065616B2020466F7263E5
:10598C0065004E005065616B2020506F776572008A
:10599C005700252E3066003E20202050432020202A
:1059AC004D6F6465003E202020536E617463680067
:1059BC003E202020436C65616E2020202620202074
:0C59CC004A65726B0000002042010000E0
:10E000000F931F93CF93DF93DA010FB7F894E19941
:10E01000FECFAB0183E0FB0180936800E89580911F
:10E02000680080FDFCCFFA0111E0BA0160507F4F1B
:10E030008C9111963C91119720E0E901C80FD11DF8
:10E0400012960E0110936800E89511243296E61797
:10E05000F70771F785E0FA0180936800E8958091F1
:10E06000680080FDFCCF81E180936800E89578949A
:0CE070000FBFDF91CF911F910F91089519
:00000001FF
